:02000000412A93
:1000060083160313141911281F301105F100710806
:10001600003A031D11280130F0000800F001080025
:10002600831203138C116E0893008316141D1C286B
:10003600182883128C1920281C288316111B2528A2
:0C004600F001080011150230F000080065
:080052008316031311150800C9
:10005A0083120313EE01EF016F08123C031D3728C8
:10006A006E088E3C031C43280320700803193E289F
:10007A0043288312EE0A0319EF0A31288312123039
:10008A006F02031D4A288F306E02031C4F287B30F3
:10009A00F000080083161114111C54285128F0018D
:0200AA0008004C
:0E00AC008312031327088A002608820008002A
:1000BA00831203138C118316911583128C196628E7
:1000CA0062281308F1006A08003A031D6F28831694
:1000DA00911671288316911283128C1183161116A8
:0E00EA0083128C19792875287108F00008001F
:0600F800000000000800FA
:1000FE0083120313FB01FA01F9018030F800F10CB1
:10010E00F00C031C93287408F90775080318750F73
:10011E00FA070318FB0A0310F01F9B287408FA074E
:10012E0075080318750FFB07FB0CFA0CF90CF80C8D
:10013E00031C86287B08F3007A08F2007908F10088
:06014E007808F000080033
:0E015400831603139114911CB028AD280800E7
:10016200831603139818B7280000B12883126A086F
:0401720099000800E8
:0E017600213083120313FD00FD0BBF2808008B
:1001840083120313ED016D086A0784000008003A26
:100194000319FB286D082007F00021080318013E0D
:1001A400F100FF307005EB0000307005EC002D20ED
:1001B400AE3083120313EE00132083126C08EE009A
:1001C400132083126B08EE00132083126D086A0754
:1001D40084000008EE00132029201A30FC00F830B7
:1001E400FD00FD0BF328FC0BF32800008312ED0A3D
:0C01F400C5286D08A0070318A10A080028
:100200000F3083120313FC004730FD00FD0B06295D
:0A021000FC0B0629000000000800A6
:10021A0083120313CE014C0884000008CD004D0858
:10022A00003A031922294D08EA00B120CE0A4E08E5
:0C023A004C0784000008CD0014290800C7
:1002460083120313E801E9014C08F0004D08F100A0
:100256001530F4000030F5007F207008E8077108BB
:100266000318013EE907CE0115304E0203186E2928
:10027600FF306805E50000306805E6002D20AE3049
:1002860083120313EE00132083126608EE00132078
:1002960083126508EE001320AA20AF308312EE0009
:1002A60013208312EA015D207008E70029201A3026
:1002B600FC00F830FD00FD0B5E29FC0B5E290000FA
:1002C60083124E084F3E840067088000E80A03192F
:0E02D600E90ACE0A3729E4014F30F000080093
:1002E40083160313141394130716871538308312D7
:0402F400940008006A
:1002F800831203131A08F100981C8429181218167F
:060308007108F00008007E
:0E030E000030831203138C1A0130F000080037
:10031C008316031398169030831298008316871750
:10032C00071383128C1E9D291A08F00097290800C8
:10033C0056208A110A128000840AA60A0319A70AF9
:08034C00F003031D9E290800C7
:1003540083160313861206120610861006118611E0
:1003640083128612061286110611861006100021C9
:10037400002100218614061486167C208612002192
:1003840086167C208612002186167C208612002187
:10039400061086167C208612002186167C20861282
:1003A4008610861586167C20861200218611061476
:1003B40086167C208612061086167C208612002162
:1003C40086167C208612061486167C20861200214E
:1003D400061086167C2086128615061586140614C9
:0C03E40086167C208612002149140800B7
:1003F000831203134C08EA00C2204D08EA00C22011
:020400000800F2
:1004020083120313CC1B072A8611082A86154C1B5C
:100412000C2A06110D2A0615CC1A112A8610122A48
:1004220086144C1A162A0610172A061449181B2A73
:1004320006161C2A061286167C208612CC19232A3E
:100442008611242A86154C19282A0611292A0615EE
:10045200CC182D2A86102E2A86144C18322A061001
:10046200332A06144918372A0616382A061286161F
:100472007C208612491C3F2A0021402ABB2008000A
:1004820083120313A001A101A201A301A401A501EA
:10049200CA01CB0133308316990018158E21023020
:1004A200FB000430FC00BA30FD00FD0B562AFC0BA9
:1004B200562AFB0B562A0000AA210130CC00012249
:1004C2000C30CC000122C701C801143083169300FE
:1004D2007221872170080319352B7C217008C60010
:1004E2007008243A031D832AC701C8010D30EA00AF
:1004F200B1200A30EA00B120A401A501A201A301A2
:10050200CB01CA014608473A031D882ACB0A4B0889
:10051200033A031D962A00304806031D922A003032
:100522004706031D962A0130CA0046082C3A031DCD
:10053200AB2AC70A0319C80A00304806031DA32ABA
:1005420004304706031DAB2A0D30EA00B1200A3001
:10055200EA00B1204A080319352B00304806031D72
:10056200B42A02304706031DC52A46082C3A03194D
:10057200C52A4608EA00B1202408373E840046080E
:100582008000A40A0319A50A00304806031DCB2ADD
:1005920003304706031DE32A46082C3A0319E32ACF
:1005A2004608EA00B1202408373E8400460880004D
:1005B200A40A0319A50A2408373E84008001A40A6C
:1005C2000319A50A00304806031DE92A043047062C
:1005D200031DFA2A46082C3A0319FA2A4608EA00A9
:1005E200B1202208283E840046088000A20A03198E
:1005F200A30A00304806031D002B05304706031DE1
:10060200182B46082C3A0319182B4608EA00B12089
:100612002208283E840046088000A20A0319A30A81
:100622002208283E84008001A20A0319A30A460870
:100632002A3A031D352B3730CC002830CD00F82163
:100642000330FB008A30FC005530FD00FD0B272BE8
:10065200FC0B272BFB0B272B00000000CC01CD014C
:0C06620023217008CC000D216A2A362BE1
:02400E004A2F37
:00000001FF
