:02000000D12A03
:10000800FF00030E8301EA000A08EB008A0170086A
:10001800A1007108A0000B1C1E280608F100710839
:10002800803A031D192846151E287108403A031DF9
:100038001E28C6140B102108F0002008F1006B08D8
:0C0048008A006A0E8300FF0E7F0E090084
:1000540083160313141938281F301105F100710891
:10006400003A031D38280130F0000800F0010800B0
:1000740083160313C201C3014308123C031D442821
:1000840042088E3C031C4F282A20700803194B2871
:100094004F28C20A0319C30A3E2812304302031D23
:1000A40055288F304202031C5A287B30F000080088
:0C00B4001114111C5E285B28F0010800EC
:0800C00083160313111508005B
:1000C800831203138C118316911583128C196D28D2
:1000D80069281308F10083164208003A031D7628A0
:1000E80091167728911283128C1183161116831298
:0C00F8008C197F287B287108F00008009C
:1001040083120313FB01FA01F9018030F800F10CAA
:10011400F00C031C96287408F90775080318750F6A
:10012400FA070318FB0A0310F01F9E287408FA0745
:1001340075080318750FFB07FB0CFA0CF90CF80C87
:10014400031C89287B08F3007A08F2007908F1007F
:060154007808F00008002D
:10015A00831203138C1183164208831293008316A9
:10016A00141DB828B42883128C19BC28B828831601
:10017A00111BC128F001080011150230F000080017
:0E018A00831603139114911CCB28C82808007B
:10019800831603139818D2280000CC28420883122B
:0401A80099000800B2
:1001AC0083160313C001C1012408F0002508F100D7
:1001BC001530F4000030F500822070088316C0075B
:1001CC0071080318013EC107A60115302602031859
:1001DC001F29FF304005BD004108F000F101FF3040
:1001EC007005BE003A20AE30C200AD203E08C20001
:1001FC00AD203D08C200AD20C520AF30C200AD20FF
:10020C00C201642070088316BF0060201A30FC0005
:10021C00F830FD00FD0B1029FC0B102900002608FE
:10022C00A73E84003F088000C00A0319C10AA60A31
:0A023C00EB28BC01A730F000080019
:1002460083120313F801F9011030FC00710DF80D4B
:10025600F90D7408F8027508031C750FF9020318E6
:100266003B297408F80775080318750FF90703107A
:0A027600F00DF10DFC0B2929080022
:1002800083160313A601240884000008A50025088E
:10029000003A031956292508C200CC208316A60A65
:0E02A0002608240784000008A500472908004E
:1002AE000F3083120313FC004730FD00FD0B5D2958
:0A02BE00FC0B5D29000000000800A1
:0602C80000000000080028
:0E02CE00213083120313FD00FD0B6B29080085
:0E02DC008312031348088A00470882000800B6
:1002EA0083160313A7012708240784000008003A8D
:1002FA000319AD29270883123B07F3003C080318AA
:10030A00013EF400FF3073058316A5007408F0005F
:10031A00F101FF307005A6003A20AE30C200AD20D0
:10032A002608C200AD202508C200AD2027082407F0
:10033A0084000008C200AD2060201A30FC00F830AA
:10034A00FD00FD0BA629FC0BA6290000A70A7829A7
:0C035A0027088312BB070318BC0A080028
:10036600153083120313F4000030F5003B08F0004B
:100376003C08F100232170088316A0007108A10033
:100386003530A40040218312EE01EF0183162108C7
:1003960083126F02031DD3298316200883126E026F
:1003A6000318E5296E088316A40083126F088316C6
:1003B600A500D6207008A40040218312EE0A031976
:0803C600EF0AC929C610080066
:0E03CE000030831203138C1A0130F000080077
:1003DC0083160313141394130716871538308312DE
:0403EC009400080071
:1003F000223083160313A400402101308312C60665
:08040000C401C501461108000A
:10040800831203138601F030831686008B158B1731
:0A0418000B1083124611C6100800F5
:10042200831203131A08F100981C192A18121816BD
:060432007108F000080053
:100438006E218A110A128000840AC70A0319C80AA1
:08044800F003031D1C2A08004B
:1004500083120313EE1B2E2A86112F2A86156E1B7C
:10046000332A0611342A0615EE1A382A8610392A3C
:1004700086146E1A3D2A06103E2A0614C619422A10
:100480000616432A0612861664218612EE194A2A97
:1004900086114B2A86156E194F2A0611502A061509
:1004A000EE18542A8610552A86146E18592A0610FA
:1004B0005A2A0614C6195E2A06165F2A06128616DE
:1004C00064218612C61D662A5721672A6721080003
:1004D000831603139816903083129800831687179B
:1004E000071383128C1E772A1A08F000712A08005D
:1004F000831203136E088316A40075216F088316F8
:06050000A40075210800B3
:10050600831603138612061206108610061186112C
:1005160083128612061286110611861006105721BE
:1005260057215721861406148616642186125721F0
:100536008616642186125721861664218612572153
:1005460006108616642186125721861664218612A5
:100556008610861586166421861257218611061482
:100566008616642186120610861664218612572185
:100576008616642186120614861664218612572171
:10058600061086166421861286150615861406142C
:0C0596008616642186125721C615080045
:1005A200533083120313A2007430A3006130A400FD
:1005B2007230A5007430A6002030A7006F30A8006A
:1005C2007230A9002030AA007330AB007430AC0046
:1005D2006F30AD007030AE000A30AF00B001B10133
:1005E200B201B301B4015330B5006530B6006E30CC
:1005F200B7006430B8000A30B900BA01BB01BC01CF
:100602005330BD007430BE006130BF007230C00094
:100612007430C1000A30C200C301EC01ED01333075
:1006220083169900181568220230FB000430FC0082
:10063200BA30FD00FD0B1B2BFC0B1B2BFB0B1B2BEA
:10064200000083220130EE0028220C30EE00282226
:10065200E801E901C401C501461014308316930074
:10066200EE2104223D308316A40040218312461D50
:100672003B2BF821C61C3E2BB3214508003C031D31
:10068200442B4408003C0318582B0B30FB00263047
:10069200FC005D30FD00FD0B4C2BFC0B4C2BFB0BCF
:1006A2004C2B000000000130C402031CC503461C91
:1006B200022C00304506031D602B00304406031D4A
:1006C200022CE72170080319022C11227008C900BC
:1006D2007008243A031D752BE801E901B301B40146
:1006E200B101B201ED01EC014908473A031D7A2B31
:1006F200ED0A6D08033A031D882B00306906031DBD
:10070200842B00306806031D882B0130EC00490859
:100712002C3A031D8F2BE80A0319E90A6C08031906
:10072200022C00306906031D982B02306806031D57
:10073200A62B49082C3A0319A62B3308593E8400EC
:1007420049088000B30A0319B40A00306906031D80
:10075200AC2B03306806031DC12B49082C3A031940
:10076200C12B3308593E840049088000B30A03199B
:10077200B40A3308593E84008001B30A0319B40A4B
:1007820000306906031DC72B04306806031DD52BF4
:1007920049082C3A0319D52B31084A3E84004908EE
:1007A2008000B10A0319B20A00306906031DDB2B6F
:1007B20005306806031DF02B49082C3A0319F02B6B
:1007C20031084A3E840049088000B10A0319B20A7E
:1007D20031084A3E84008001B10A0319B20A49086D
:1007E2002A3A031D022C5930EE004A30EF007822DB
:1007F20059308316A400402105308312C400003012
:06080200C500372B032C9A
:02400E004A2F37
:00000001FF
