:02000000092BCA
:10000800FF00030E8301E1000A08E2008A0170087C
:10001800A1007108A0000B1C24280608F100710833
:10002800803A031D1928B11524287108403A031D88
:100038001F28311524287108103A031D2428B114EB
:100048000B102108F0002008F10062088A00610EF8
:080058008300FF0E7F0E09007A
:100060008316031314193E281F301105F10071087F
:10007000003A031D3E280130F0000800F00108009E
:1000800083160313D401D5015508123C031D4A28D9
:1000900054088E3C031C5528302070080319512841
:1000A0005528D40A0319D50A442812305502031DD5
:1000B0005B288F305402031C60287B30F00008005E
:0C00C0001114111C64286128F0010800D4
:0800CC0083160313111508004F
:1000D400831603139818702800006A2883126F0887
:0400E4009900080077
:1000E80083120313FB01FA01F9018030F800F10CC7
:1000F800F00C031C88287408F90775080318750F95
:10010800FA070318FB0A0310F01F90287408FA076F
:1001180075080318750FFB07FB0CFA0CF90CF80CA3
:10012800031C7B287B08F3007A08F2007908F100A9
:060138007808F000080049
:0E013E00831603139114911CA528A228080013
:10014C00831203138C118316911583128C19AF280B
:10015C00AB281308F1006F08003A031DB82883166A
:10016C009116BA288316911283128C1183161116CC
:0E017C0083128C19C228BE287108F0000800FA
:10018A00831203138C116F0893008316141DCE2853
:10019A00CA2883128C19D228CE288316111BD72875
:0C01AA00F001080011150230F000080000
:1001B60083160313D201D30183126908F0006A087B
:1001C600F1001830F4000030F50074207008831632
:1001D600D20771080318013ED3078312EB011830CA
:1001E6006B0203183129FF30831652058312EC0087
:1001F60083165308F000F101FF3070058312ED00FD
:100206004020AE308312EF00C52083126D08EF0048
:10021600C52083126C08EF00C5209F20AF308312E3
:10022600EF00C5208312EF01A6207008EE006620BD
:100236001A30FC00F830FD00FD0B1F29FC0B1F29AE
:10024600000083126B08A03E84006E0880008316AF
:10025600D20A0319D30A8312EB0AF2288316B801CD
:06026600A030F0000800CA
:10026C0083120313EB01690884000008EA006A0892
:10027C00003A03194B296A08EF006A20EB0A6B0855
:0C028C00690784000008EA003D29080012
:0602980000000000080058
:0E029E00213083120313FD00FD0B53290800CD
:1002AC0083120313F801F9011030FC00710DF80DE5
:1002BC00F90D7408F8027508031C750FF902031880
:1002CC006E297408F80775080318750FF9070310E1
:0A02DC00F00DF10DFC0B5C29080089
:1002E6000F3083120313FC004730FD00FD0B792904
:0A02F600FC0B79290000000008004D
:0E0300008312031330088A002F0882000800C1
:10030E00183083120313F4000030F5002208F000B9
:10031E002308F10056217008E7007108E800E50196
:10032E00E60168086602031D9E2967086502031828
:10033E00B3296508E9006608EA00DB20700883121D
:10034E00E90036210D30EF006A200A30EF006A20F6
:10035E00E50A0319E60A9829B110A201A3010800C3
:10036E00013083120313B106B201B301B1110800BB
:10037E00831203138601F030831686008B158B17BC
:0C038E000B108312B111B11031110800E6
:10039A008316031314139413071687153830831220
:0403AA0094000800B3
:1003AE00831203133111F0290A30B6000030B70062
:1003BE0002308800082A1430B6000030B70004302E
:1003CE008800082A0530B6000030B70001308800DA
:1003DE00082A00303706031DF629053036060319A4
:1003EE00DB2900303706031DFE290A3036060319B5
:1003FE00E22900303706031D062A1430360603198B
:0C040E00E9293608B2003708B3000800E6
:10041A0083120313E51B132A8611142A8615651BFA
:10042A00182A0611192A0615E51A1D2A86101E2AE7
:10043A008614651A222A0610232A0614311A272A34
:10044A000616282A061286164C218612E5192F2A24
:10045A008611302A86156519342A0611352A061599
:10046A00E518392A86103A2A861465183E2A061093
:10047A003F2A0614311A432A0616442A06128616F9
:10048A004C218612311E4B2A73214C2A4F21080017
:0E049A000030831203138C1A0130F0000800AA
:1004A800831203131A08F100981C5C2A18121816F4
:0604B8007108F0000800CD
:1004BE008316031386120612061086100611861175
:1004CE0083128612061286110611861006107321EB
:1004DE00732173218614061486164C2186127321FD
:1004EE0086164C218612732186164C218612732194
:1004FE00061086164C218612732186164C21861202
:10050E008610861586164C218612732186110614C6
:10051E0086164C218612061086164C2186127321E1
:10052E0086164C218612061486164C2186127321CD
:10053E00061086164C21861286150615861406148C
:0C054E0086164C2186127321311608001D
:10055A008316031398169030831298008316871710
:10056A00071383128C1EBC2A1A08F000B62A080048
:10057A0083120313E8016808650784000008003A3B
:10058A000319F82A68082207F30023080318013E12
:10059A00F400FF307305E6007408F000F101FF3043
:1005AA007005E7004020AE308312EF00C5208312A9
:1005BA006708EF00C52083126608EF00C520831282
:1005CA006808650784000008EF00C52066201A3015
:1005DA00FC00F830FD00FD0BF02AFC0BF02A0000AD
:1005EA008312E80AC02A6808A2070318A30A0800A7
:1005FA0080218A110A128000840AAF0A0319B00AFC
:08060A00F003031DFD2A0800A6
:1006120083120313A201A301A401A5016330A60062
:100622006F30A7007530A8006330A9006F30AA00B0
:100632007530AB002030AC000A30AD00AE01E301F2
:10064200E4013330831699001815AD220230FB0005
:100652000430FC00BA30FD00FD0B2D2BFC0B2D2BC2
:10066200FB0B2D2B00005F220130E5000D220C3028
:10067200E5000D22B401B501B201B301311005301C
:10068200B6000030B7008801143083169300CD21E4
:10069200BF21B11D4D2BB721B11C502B8721311D1C
:1006A200532BD7213308003C031D592B3208003C41
:1006B20003186D2B0B30FB002630FC005D30FD0073
:1006C200FD0B612BFC0B612BFB0B612B000000006F
:1006D2000130B202031CB303311CF82B0030330685
:1006E200031D752B00303206031DF82B4D227008B6
:1006F2000319F82B54227008B8007008243A031D1D
:10070200882BB401B501A401A501E401E301380875
:10071200473A031D8D2BE40A6408033A031D9B2B01
:1007220000303506031D972B00303406031D9B2B2A
:100732000130E30038082C3A031DA22BB40A031936
:10074200B50A63080319F82B00303506031DAB2BDD
:1007520002303406031DB22B38082C3A031DB22B8B
:10076200EA2B80303506F00080307002031DBB2B6F
:1007720002303402031CD02B80302506F00080307A
:100782007002031DC62B183024020318D02B240834
:10079200393E840038088000A40A0319A50A803073
:1007A2003506F00080307002031DD92B023034026E
:1007B200031CEA2B00302506031DE12B183024060A
:1007C200031DEA2B2408393E84008001A40A031980
:1007D200A50A38082A3A031DF82B3930E500BD2254
:1007E2003608B2003708B3002630E90036214A2B1A
:0207F200F92BE1
:02400E004A2F37
:00000001FF
