:02000000FD29D8
:10000800FF00030E8301E6000A08E7008A01700872
:10001800A1007108A0000B1C24280608F100710833
:10002800803A031D1928C21524287108403A031D77
:100038001F28421424287108203A031D2428421539
:100048000B102108F0002008F10067088A00660EEE
:080058008300FF0E7F0E09007A
:100060008316031314193E281F301105F10071087F
:10007000003A031D3E280130F0000800F00108009E
:0800800083160313111508009B
:10008800831203138C11831622088312930083169C
:10009800141D4F284B2883128C1953284F28831678
:1000A800111B5828F001080011150230F000080053
:1000B80083160313A201A3012308123C031D66281B
:1000C80022088E3C031C71283020700803196D2803
:1000D8007128A20A0319A30A602812302302031DFB
:1000E80077288F302202031C7C287B30F000080020
:0C00F8001114111C80287D28F001080064
:100104008316031398188828000082282208831273
:040114009900080046
:0E011800213083120313FD00FD0B9028080018
:1001260083160313A101210883126E0784000008B9
:10013600003A0319D1288316210883122F07F300EA
:1001460030080318013EF400FF307305EF00740811
:10015600F000F101FF3070058316A0005C20AE3080
:10016600A20044202008A200442083126F088316B0
:10017600A2004420210883126E078400000883161B
:10018600A200442040201A30FC00F830FD00FD0B90
:10019600CA28FC0BCA280000A10A96288316210843
:0A01A6008312AF070318B00A080027
:0E01B0008312031344088A00430882000800EB
:0601BE0000000000080033
:1001C4000F3083120313FC004730FD00FD0BE828B9
:0A01D400FC0BE82800000000080002
:1001DE0083160313A00183126E0884000008EF003B
:1001EE006F08003A031908296F088316A2008220AF
:1001FE008316A00A200883126E0784000008EF0001
:04020E00F7280800C5
:10021200831203131A08F100981C112918121816D8
:060222007108F000080065
:10022800831203136A08EE0093206B08EE009320F4
:020238000800BC
:10023A008316031398169030831298008316871733
:10024A00071383128C1E2C291A08F000262908008D
:10025A00223083120313EE00EF20C210421008006E
:10026A008316031314139413071687153830831251
:04027A0094000800E4
:10027E00283083120313EE00EF20C214C2110800BF
:10028E00D8208A110A128000840AC30A0319C40AEC
:08029E00F003031D47290800CD
:1002A60083120313EA1B592986115A2986156A1BDC
:1002B6005E2906115F290615EA1A63298610642944
:1002C60086146A1A6829061069290614421A6D29C5
:1002D60006166E2906128616DF208612EA19752979
:1002E6008611762986156A197A2906117B2906153B
:1002F600EA187F298610802986146A188429061030
:1003060085290614421A892906168A29061286168E
:10031600DF208612421E9129E22092298C200800B5
:10032600831203138601F030831686008B158B1714
:0C0336000B108312C2114210421108008B
:0E0342000030831203138C1A0130F000080003
:1003500083160313861206120610861006118611E4
:100360008312861206128611061186100610E220EC
:10037000E220E220861406148616DF208612E22090
:100380008616DF208612E2208616DF208612E22003
:1003900006108616DF208612E2208616DF208612DF
:1003A000861086158616DF208612E2208611061436
:1003B0008616DF20861206108616DF208612E220BF
:1003C0008616DF20861206148616DF208612E220AB
:1003D00006108616DF20861286150615861406146A
:0C03E0008616DF208612E220421608007C
:0E03EC00353083120313EE00EF20421108009B
:1003FA00533083120313A2007430A3006F30A40099
:10040A007030A5000A30A600A7015330A800743046
:10041A00A9006130AA007230AB007430AC000A3017
:10042A00AD00AE01AF01B001B101B201B301B40137
:10043A005330B5006530B6006E30B7006430B8008E
:10044A000A30B900BA015330BB007430BC006130C5
:10045A00BD007230BE007430BF000A30C000C10156
:10046A00E801E90133308316990018151D2102307D
:10047A00FB000430FC00BA30FD00FD0B422AFC0BE5
:10048A00422AFB0B422A0000A8210130EA0053212C
:10049A000C30EA005321E401E5011430831693007D
:1004AA00352193213B30EE00EF20C210C21D5E2A97
:1004BA003F21421C612A2D21421D642AF621C21CB9
:1004CA000C2BA121700803190C2B09217008C500F7
:1004DA007008243A031D792AE401E501B301B40145
:1004EA00B101B201E901E8014508473A031D7E2A34
:1004FA00E90A6908033A031D8C2A00306506031DC0
:10050A00882A00306406031D8C2A0130E800450859
:10051A002C3A031D932AE40A0319E50A6808031909
:10052A000C2B00306506031D9C2A02306406031D4D
:10053A00AA2A45082C3A0319AA2A3308553E8400E8
:10054A0045088000B30A0319B40A00306506031D82
:10055A00B02A03306406031DC52A45082C3A03193C
:10056A00C52A3308553E840045088000B30A03199A
:10057A00B40A3308553E84008001B30A0319B40A49
:10058A0000306506031DCB2A04306406031DD92AF0
:10059A0045082C3A0319D92A3108463E84004508F1
:1005AA008000B10A0319B20A00306506031DDF2A6A
:1005BA0005306406031DF42A45082C3A0319F42A67
:1005CA003108463E840045088000B10A0319B20A80
:1005DA003108463E84008001B10A0319B20A45086F
:1005EA002A3A031D0C2B5530EA004630EB00142141
:1005FA005530EE00EF203130FB003230FC008730FE
:10060A00FD00FD0B062BFC0B062BFB0B062B5B2AB6
:02061A000D2BA6
:02400E004A2F37
:00000001FF
