:02000000322AA2
:10000600831603178C1C0928000003288312031388
:10001600690803178D0003136A0803178C008316FB
:100026008C130C150B08F0008B1355308D00AA307D
:100036008D008C14F01B21288B1322288B170C1192
:020046000800B0
:100048008316031398182A280000242883126708A7
:040058009900080003
:10005C0083120313670803178D0083168C130C147B
:08006C0083120C08F0000800EB
:10007400831203137008F100F0010830FC007108CA
:10008400F40C03184928FC0B4228F1010034031036
:100094004E28F40C0318F107F10CF00CFC0B4B2860
:0200A400080052
:0E00A6008312031326088A0025088200080032
:1000B40083160313141968281F301105F100710801
:1000C400003A031D68280130F0000800F001080020
:1000D4000F3083120313FC004730FD00FD0B702822
:0A00E400FC0B70280000000008006B
:1000EE0083120313E8016808670784000008003ACA
:1000FE0003198E2868082007E9006808670784003E
:10010E000008EA00032083120313E80A7A2868081D
:04011E00A00708002E
:06012200000000000800CF
:0E012800213083120313FD00FD0B9828080000
:10013600831203138C114B0893008316141DA428F5
:10014600A02883128C19A828A4288316111BAD2871
:0C015600F001080011150230F000080054
:0E016200831603139114911CB728B4280800CB
:1001700083120313CB1BBE288611BF2886154B1B89
:10018000C3280611C4280615CB1AC8288610C9280A
:1001900086144B1ACD280610CE2806143618D228FD
:1001A0000616D3280612861691208612CB19DA2855
:1001B0008611DB2886154B19DF280611E028061565
:1001C000CB18E4288610E52886144B18E928061079
:1001D000EA2806143618EE280616EF2806128616A8
:1001E00091208612361CF6286A20F72894200800F1
:0E01F0000030831203138C1A0130F000080057
:1001FE008316031398169030831298008316871770
:10020E00071383128C1E0E291A08F0000829080005
:10021E00023083120313FB000430FC00BA30FD00E1
:10022E00FD0B1729FC0B1729FB0B172900000800E3
:10023E00831203138C118316911583128C1928299E
:10024E0024291308F1004B08003A031D31298316A7
:10025E00911633298316911283128C11831611165F
:0E026E0083128C193B2937297108F000080013
:10027C0053208A110A128000840AA50A0319A60ABF
:08028C00F003031D3E290800E8
:1002940083120313E5014B08F0001530F4003A20F3
:1002A4007008E507CD01CE0180304E06F0008030A5
:1002B4007002031D5F2915304D0203187F294D0874
:1002C4004F3EE6004D086507E7002E20031366083D
:1002D4008400700880000330FB008A30FC00553035
:1002E400FD00FD0B7329FC0B7329FB0B7329000024
:1002F4000000CD0A0319CE0A5629E4014F30F0005C
:020304000800EF
:1003060083120313CD014B0884000008CC004C086F
:10031600003A031998294C08E7002420CD0A4D0815
:0C0326004B0784000008CC008A29080066
:10033200831203134B08E70077204C08E70077206D
:020342000800B1
:080344008316031311150800D4
:10034C0083120313CB01CC014C08123C031DB029C2
:10035C004B088E3C031CBC295A2070080319B72982
:10036C00BC298312CB0A0319CC0AAA298312123096
:10037C004C02031DC3298F304B02031CC8297B3050
:10038C00F000080083161114111CCD29CA29F001A4
:02039C00080057
:10039E008316031386120612061086100611861196
:1003AE0083128612061286110611861006106A2016
:1003BE006A206A20861406148616912086126A20F8
:1003CE008616912086126A208616912086126A2041
:1003DE0006108616912086126A20861691208612A5
:1003EE00861086158616912086126A2086110614AE
:1003FE0086169120861206108616912086126A2085
:10040E0086169120861206148616912086126A2070
:10041E000610861691208612861506158614061469
:0C042E008616912086126A203614080001
:10043A00831203131A08F100981C252A1812181699
:06044A007108F00008003B
:100450008316031314139413071687153830831269
:0404600094000800FC
:1004640083120313A001A101A201A301A401C901E4
:10047400CA013330831699001815FF200230FB009F
:100484000430FC00BA30FD00FD0B462AFC0B462A62
:10049400FB0B462A0000CF210130CB00B8200C30E2
:1004A400CB00B820C701C80114308316930028225A
:1004B400A621A23083120313CB009B2002308312A7
:1004C400CB009B204A308312CB009B20A2210F211A
:1004D400A621A23083120313CB009B200230831287
:1004E400CB009B20B120A3308312CB009B2083122E
:1004F400CB011F217008E7002420A221F8207008F6
:100504000319512B1D227008C6007008243A031DDC
:10051400992AC701C8010D30E70024200A30E700FA
:100524002420A301A401A101A201CA01C901460812
:10053400473A031D9E2ACA0A4A08033A031DAC2AF5
:1005440000304806031DA82A00304706031DAC2AC4
:100554000130C90046082C3A031DC12AC70A0319F1
:10056400C80A00304806031DB92A04304706031D93
:10057400C12A0D30E70024200A30E700242049086E
:100584000319512B00304806031DCA2A02304706BE
:10059400031DDB2A46082C3A0319DB2A4608E70028
:1005A40024202308273E840046088000A30A031958
:1005B400A40A00304806031DE12A03304706031D40
:1005C400F92A46082C3A0319F92A4608E700242098
:1005D4002308273E840046088000A30A0319A40ABE
:1005E4002308273E84008001A30A0319A40A0030CB
:1005F4004806031DFF2A04304706031D102B460836
:100604002C3A0319102B4608E70024202108373E12
:10061400840046088000A10A0319A20A0030480693
:10062400031D162B05304706031D2E2B46082C3AB6
:1006340003192E2B4608E70024202108373E8400A6
:1006440046088000A10A0319A20A2108373E840043
:100654008001A10A0319A20A46082A3A031D512B54
:100664002730CB003730CC0099210330FB008A308F
:10067400FC005530FD00FD0B3D2BFC0B3D2BFB0B13
:100684003D2B000000000D30E70024200A30E70075
:100694002420CB01CC014A217008CB008321802A7D
:0206A400522BD7
:02400E004A2F37
:00000001FF
