:020000002B2BA8
:10000800FF00030E8301B3000A08B4008A017008D8
:10001800A1007108A0000B1C24280608F100710833
:10002800803A031D19282A1424287108403A031D10
:100038001F28AA1424287108103A031D2428AA1579
:100048000B102108F0002008F10034088A00330E54
:080058008300FF0E7F0E09007A
:100060008316031314193E281F301105F10071087F
:10007000003A031D3E280130F0000800F00108009E
:1000800083120313EB01EC016C08123C031D4A2898
:100090006B088E3C031C5628302070080319512829
:1000A00056288312EB0A0319EC0A442883121230F3
:1000B0006C02031D5D288F306B02031C62287B30AD
:1000C000F000080083161114111C67286428F00141
:0200D000080026
:0800D200831603131115080049
:1000DA00831603139818732800006D2883126B087F
:0400EA009900080071
:1000EE0083120313FB01FA01F9018030F800F10CC1
:1000FE00F00C031C8B287408F90775080318750F8C
:10010E00FA070318FB0A0310F01F93287408FA0766
:10011E0075080318750FFB07FB0CFA0CF90CF80C9D
:10012E00031C7E287B08F3007A08F2007908F100A0
:06013E007808F000080043
:0E014400831603139114911CA828A528080007
:10015200831203138C118316911583128C19B22802
:10016200AE281308F1006B08003A031DBB28831662
:100172009116BD288316911283128C1183161116C3
:0E01820083128C19C528C1287108F0000800EE
:10019000831203138C116B0893008316141DD1284E
:1001A000CD2883128C19D528D1288316111BDA2863
:0C01B000F001080011150230F0000800FA
:1001BC0083120313E901EA016308F0006408F100FB
:1001CC001830F4000030F50077207008E90771084A
:1001DC000318013EEA07E5011830650203182C29C3
:1001EC00FF306905E6006A08F000F101FF30700588
:1001FC00E7004020AE3083120313EB00C8208312BB
:10020C006708EB00C82083126608EB00C820A22008
:10021C00AF308312EB00C8208312EB01A9207008C9
:10022C00E80069201A30FC00F830FD00FD0B1C2999
:10023C00FC0B1C29000083126508A03E8400680892
:10024C008000E90A0319EA0AE50AF2288316B801C4
:06025C00A030F0000800D4
:1002620083120313E501630884000008E4006408B4
:10027200003A031946296408EB006D20E50A650877
:0C028200630784000008E400382908002D
:06028E0000000000080062
:0E029400213083120313FD00FD0B4E290800DC
:1002A20083120313F801F9011030FC00710DF80DEF
:1002B200F90D7408F8027508031C750FF90203188A
:1002C20069297408F80775080318750FF9070310F0
:0A02D200F00DF10DFC0B5729080098
:1002DC000F3083120313FC004730FD00FD0B742913
:0A02EC00FC0B74290000000008005C
:0E02F6008312031327088A00260882000800DE
:10030400183083120313F4000030F5002208F000C3
:100314002308F10051217008E1007108E200DF01B7
:10032400E00162086002031D992961085F02031855
:10033400AE295F08E3006008E400DE207008831241
:10034400E30031210D30EB006D200A30EB006D200D
:10035400DF0A0319E00A9329AA11A201A3010800E4
:10036400043083120313AA062A1DBB290130F000AE
:10037400BC29F0017008AD000030AD1BFF30AE00A9
:0E0384002D082F048800AB01AC012A100800E0
:10039200831203138601F0308316860083128801CC
:1003A200831688010130831288008B158B170B107E
:1003B2002A10AA11AA10AD01AE010230AF0000301E
:0803C200B000023088000800C1
:1003CA0083160313141394130716871538308312F0
:0403DA009400080083
:1003DE0083120313AA100E2A0A30B1000030B200A5
:1003EE000430AF000030B000262A1430B1000030C7
:1003FE00B2000830AF000030B000262A0530B10040
:10040E000030B2000230AF000030B000262A0030BB
:10041E003206031D142A053031060319F329003064
:10042E003206031D1C2A0A3031060319FC2900303E
:10043E003206031D242A143031060319052A2D080D
:0E044E002F0488003108AB003208AC00080013
:10045C0083120313DF1B342A8611352A86155F1B82
:10046C00392A06113A2A0615DF1A3E2A86103F2A27
:10047C0086145F1A432A0610442A06142A1A482A9C
:10048C000616492A0612861647218612DF19502AAB
:10049C008611512A86155F19552A0611562A0615FA
:1004AC00DF185A2A86105B2A86145F185F2A0610FA
:1004BC00602A06142A1A642A0616652A061286165B
:1004CC00472186122A1E6C2A6E216D2A4A210800A9
:0E04DC000030831203138C1A0130F000080068
:1004EA00831203131A08F100981C7D2A1812181691
:0604FA007108F00008008B
:100500008316031386120612061086100611861132
:1005100083128612061286110611861006106E21AD
:100520006E216E21861406148616472186126E21CE
:100530008616472186126E218616472186126E2165
:1005400006108616472186126E21861647218612CE
:10055000861086158616472186126E21861106148E
:1005600086164721861206108616472186126E21AE
:1005700086164721861206148616472186126E219A
:10058000061086164721861286150615861406144F
:0C0590008616472186126E212A160800EC
:10059C0083160313981690308312980083168717CE
:1005AC00071383128C1EDD2A1A08F000D72A0800C4
:1005BC0083120313E20162085F0784000008003A0B
:1005CC0003191A2B62082207F30023080318013EB3
:1005DC00F400FF307305E0007408F000F101FF3007
:1005EC007005E1004020AE3083120313EB00C820ED
:1005FC0083126108EB00C82083126008EB00C8204E
:10060C00831262085F0784000008EB00C820692091
:10061C001A30FC00F830FD00FD0B122BFC0B122BDA
:10062C0000008312E20AE12A6208A2070318A30A57
:02063C000800B4
:10063E007B218A110A128000840AA60A0319A70ACE
:08064E00F003031D1F2B08003F
:1006560083120313A201A301A401A501DE01333015
:10066600831699001815CE220230FB000430FC00D8
:10067600BA30FD00FD0B3D2BFC0B3D2BFB0B3D2B40
:10068600000080220130DF002E220C30DF002E22F7
:10069600A801A901AB01AC012A110230B10000305A
:1006A600B200143083169300E521C9212A1C5C2B65
:1006B600B221AA1D5F2B8221AA1C622BEF212C08D6
:1006C600003C031D682B2B08003C03187C2B0B30C9
:1006D600FB002630FC005D30FD00FD0B702BFC0B93
:1006E600702BFB0B702B000000000130AB02031CCB
:1006F600AC032A1D022C00302C06031D842B00306F
:100706002B06031D022C6E2270080319022C75227B
:100716007008B5007008243A031D962BA801A9019C
:10072600A401A501DE013508473A031D9B2BDE0A0D
:100736005E08033A031D022C35082C3A031DA62B2E
:10074600A80A0319A90A00302906031DAC2B02309A
:100756002806031DB32B35082C3A031DB32BEB2BB0
:1007660080302906F00080307002031DBC2B023059
:100776002802031CD12B80302506F0008030700241
:10078600031DC72B183024020318D12B2408363E2C
:10079600840035088000A40A0319A50A80302906BA
:1007A600F00080307002031DDA2B02302802031C91
:1007B600EB2B00302506031DE22B18302406031D03
:1007C600EB2B2408363E84008001A40A0319A50AEF
:1007D6008030F000803025067002031DF42B2408BB
:1007E600183C0318022C3630DF00DE223108AB003D
:1007F6003208AC00A801A901A401A501DE01592B0C
:02080600032CC1
:02400E004A2F37
:00000001FF
