:02000000012BD2
:10000600831603139818092800000328360883125C
:040016009900080045
:10001A008316031314191B281F301105F1007108E8
:10002A00003A031D1B280130F0000800F001080007
:10003A00831203138C116D0893008316141D26284E
:10004A00222883128C192A2826288316111B2F2866
:0C005A00F001080011150230F000080051
:080066008316031311150800B5
:10006E00023083120313FC004930FD00FD0B3D28C6
:0A007E00FC0B3D2800000000080004
:1000880083120313ED01EE016E08123C031D4E2886
:100098006D088E3C031C5A280D207008031955283A
:1000A8005A288312ED0A0319EE0A482883121230DF
:1000B8006E02031D61288F306D02031C66287B3099
:1000C800F000080083161114111C6B286828F00131
:0200D80008001E
:1000DA0083120313EF016D0884000008EE006E0816
:1000EA00003A031983286E088316B6000320EF0A24
:0E00FA006F086D0784000008EE0074280800EF
:0E010800213083120313FD00FD0B8828080030
:0C011600203083120313ED006D20080060
:0C012200313083120313ED006D20080043
:10012E000F3083120313FC004730FD00FD0B9D289A
:0A013E00FC0B9D28000000000800E3
:0C014800263083120313ED006D20080028
:0E015400831203133B088A003A088200080059
:1001620083120313FB01FA01F9018030F800F10C4C
:10017200F00C031CC5287408F90775080318750FDD
:10018200FA070318FB0A0310F01FCD287408FA07B8
:1001920075080318750FFB07FB0CFA0CF90CF80C29
:1001A200031CB8287B08F3007A08F2007908F100F2
:0601B2007808F0000800CF
:1001B80083120313EA016A08670784000008003AFB
:1001C800031918296A082D07F3002E080318013EA1
:1001D800F400FF307305E8007408F000F101FF3007
:1001E8007005E9004420AE3083120313ED001D2092
:1001F80083126908ED001D2083126808ED001D2098
:1002080083126A08670784000008ED001D20332068
:100218001A30FC00F830FD00FD0B1029FC0B1029EA
:1002280000008312EA0ADF286A08AD070318AE0A3D
:020238000800BC
:10023A00831203138C118316911583128C192629A4
:10024A0022291308F1006708003A031D2F29831693
:10025A00911631298316911283128C118316111665
:0E026A0083128C19392935297108F00008001B
:0602780000000000080078
:0E027E00831603139114911C45294229080090
:10028C0083120313EC016808F1000130F0007108CF
:10029C0003195429F00D7010FF3E4E297008EB0025
:1002AC006708840070080005F10071080130031D17
:1002BC000030F0006A08F00603197C296908003C3C
:1002CC0003186C2937203720E90364296708840058
:1002DC006B080005F10071080130031D0030F000BF
:1002EC006A08F00603197C29FF30EC006C08F0005A
:0202FC000800F8
:0E02FE000030831203138C1A0130F000080048
:10030C00063083120313E7000130E8000130E900E6
:10031C000130EA0046217008031995293914391C5B
:10032C00A4290630E7000130E8000130E900EA01B9
:0E033C00462170080319A42939108B200800EF
:10034A0083120313E501E6015F08F0006008F1007B
:10035A001530F4000030F500B1207008E507710887
:10036A000318013EE607E101153061020318F3297B
:10037A00FF306505E2006608F000F101FF30700504
:10038A00E3004420AE3083120313ED001D208312D4
:10039A006308ED001D2083126208ED001D203F2135
:1003AA00AF308312ED001D208312E7011D21700872
:1003BA00E40033201A30FC00F830FD00FD0BE3297D
:1003CA00FC0BE329000083126108A03E8400640844
:1003DA008000E50A0319E60AE10AB9298316B5017C
:0603EA00A030F000080045
:1003F000063083120313E700E8010130E900013001
:10040000EA00462170080319062A3915391D142AF5
:100410000630E700E8010130E900EA0146217008F2
:0A0420000319142A3911A420080062
:0A042A000730831603138600080054
:100434008316031314139413071687153830831285
:040444009400080018
:10044800063083120313E7000230E8000130E900A8
:100458000130EA00462170080319332AB914B91C7F
:10046800422A0630E7000230E8000130E900EA01DC
:0E047800462170080319422AB910912008008D
:10048600AA208A110A128000840ABA0A0319BB0A32
:08049600F003031D432A0800D6
:10049E0083120313DF1B552A8611562A86155F1BFE
:1004AE005A2A06115B2A0615DF1A5F2A8610602A61
:1004BE0086145F1A642A0610652A0614B919692A69
:1004CE0006166A2A061286163C218612DF19712A32
:1004DE008611722A86155F19762A0611772A061555
:1004EE00DF187B2A86107C2A86145F18802A061055
:1004FE00812A0614B919852A0616862A0612861628
:10050E003C218612B91D8D2A97208E2A8420080040
:10051E00831203135F08E700DC206008E700DC208D
:02052E000800C3
:10053000831203131A08F100981CA02A1812181627
:060540007108F000080044
:1005460083160313861206120610861006118611EC
:10055600831286120612861106118610061097203F
:10056600972097208614061486163C21861297201B
:1005760086163C218612972086163C2186129720E5
:10058600061086163C218612972086163C21861276
:100596008610861586163C2186129720861106142B
:1005A60086163C218612061086163C218612972056
:1005B60086163C218612061486163C218612972042
:1005C600061086163C218612861506158614061414
:0C05D60086163C2186129720B9150800FB
:1005E2008316031398169030831298008316871788
:1005F200071383128C1E002B1A08F000FA2A080037
:10060200733083120313A0007430A1006F30A20074
:100612007030A3000A30A400A5017330A600743024
:10062200A7006130A8007230A9007430AA000A3015
:10063200AB00AC01AD01AE01AF01B0017330B1004E
:100642006530B2006E30B3006430B4000A30B500D9
:10065200B601B701B801DD01DE013330831699001E
:100662001815F1220230FB000430FC00BA30FD0004
:10067200FD0B392BFC0B392BFB0B392B0000A32272
:100682000130DF004F220C30DF004F22DB01DC01A2
:100692001430831693001A221522F821862124226F
:1006A2007F21700803193C2C98227008DA00700828
:1006B200243A031D6C2BDB01DC010D308316B600DE
:1006C20003200A308316B6000320B701B801AF0138
:1006D200B001DE01DD015A08473A031D712BDE0A23
:1006E2005E08033A031D7F2B00305C06031D7B2B43
:1006F20000305B06031D7F2B0130DD005A082C3AC7
:10070200031D962BDB0A0319DC0A00305C06031D6D
:100712008C2B04305B06031D962B0D308316B6001E
:1007220003200A308316B60003205D0803193C2C0F
:1007320000305C06031D9F2B02305B06031DB12BAC
:100742005A082C3A0319B12B5A088316B600032013
:1007520037083C3E84005A088000B70A0319B80AD9
:1007620000305C06031DB72B03305B06031DD02B44
:100772005A082C3A0319D02B5A088316B6000320C4
:1007820037083C3E84005A088000B70A0319B80AA9
:1007920037083C3E84008001B70A0319B80A0030CA
:1007A2005C06031DD62B04305B06031DE82B5A089A
:1007B2002C3A0319E82B5A088316B60003202F0897
:1007C2004B3E84005A088000AF0A0319B00A003079
:1007D2005C06031DEE2B05305B06031D072C5A0831
:1007E2002C3A0319072C5A088316B60003202F0847
:1007F2004B3E84005A088000AF0A0319B00A2F0842
:100802004B3E84008001AF0A0319B00A5A082A3A03
:10081200031D3C2C3C30DF004B30E0008F220330C4
:10082200FB008A30FC005530FD00FD0B162CFC0B42
:10083200162CFB0B162C00000000DF01E001A521A5
:1008420070088312ED006D200330FB008A30FC003B
:100852005530FD00FD0B2B2CFC0B2B2CFB0B2B2CFA
:10086200000000000F30DF000030E000A52170081A
:0A0872008312ED006D204E2B3D2C8B
:02400E004A2F37
:00000001FF
