:020000002B2BA8
:10000800FF00030E8301B3000A08B4008A017008D8
:10001800A1007108A0000B1C24280608F100710833
:10002800803A031D19282A1424287108403A031D10
:100038001F28AA1424287108103A031D2428AA1579
:100048000B102108F0002008F10034088A00330E54
:080058008300FF0E7F0E09007A
:100060008316031314193E281F301105F10071087F
:10007000003A031D3E280130F0000800F00108009E
:1000800083120313EC01ED016D08123C031D4A2895
:100090006C088E3C031C5628302070080319512828
:1000A00056288312EC0A0319ED0A442883121230F1
:1000B0006D02031D5D288F306C02031C62287B30AB
:1000C000F000080083161114111C67286428F00141
:0200D000080026
:0800D200831603131115080049
:1000DA00831603139818732800006D2883126C087E
:0400EA009900080071
:1000EE0083120313FB01FA01F9018030F800F10CC1
:1000FE00F00C031C8B287408F90775080318750F8C
:10010E00FA070318FB0A0310F01F93287408FA0766
:10011E0075080318750FFB07FB0CFA0CF90CF80C9D
:10012E00031C7E287B08F3007A08F2007908F100A0
:06013E007808F000080043
:0E014400831603139114911CA828A528080007
:10015200831203138C118316911583128C19B22802
:10016200AE281308F1006C08003A031DBB28831661
:100172009116BD288316911283128C1183161116C3
:0E01820083128C19C528C1287108F0000800EE
:10019000831203138C116C0893008316141DD1284D
:1001A000CD2883128C19D528D1288316111BDA2863
:0C01B000F001080011150230F0000800FA
:1001BC0083120313EA01EB016408F0006508F100F7
:1001CC001830F4000030F50077207008EA07710849
:1001DC000318013EEB07E6011830660203182C29C0
:1001EC00FF306A05E7006B08F000F101FF30700585
:1001FC00E8004020AE3083120313EC00C8208312B9
:10020C006808EC00C82083126708EC00C820A22004
:10021C00AF308312EC00C8208312EC01A9207008C7
:10022C00E90069201A30FC00F830FD00FD0B1C2998
:10023C00FC0B1C29000083126608A03E8400690890
:10024C008000EA0A0319EB0AE60AF2288316B801C1
:06025C00A030F0000800D4
:1002620083120313E601640884000008E5006508B0
:10027200003A031946296508EC006D20E60A660873
:0C028200640784000008E500382908002B
:06028E0000000000080062
:0E029400213083120313FD00FD0B4E290800DC
:1002A20083120313F801F9011030FC00710DF80DEF
:1002B200F90D7408F8027508031C750FF90203188A
:1002C20069297408F80775080318750FF9070310F0
:0A02D200F00DF10DFC0B5729080098
:1002DC000F3083120313FC004730FD00FD0B742913
:0A02EC00FC0B74290000000008005C
:0E02F6008312031327088A00260882000800DE
:10030400183083120313F4000030F5002208F000C3
:100314002308F10051217008E2007108E300E001B4
:10032400E10163086102031D992962086002031850
:10033400AE296008E4006108E500DE20700883123D
:10034400E40031210D30EC006D200A30EC006D200A
:10035400E00A0319E10A9329AA11A201A3010800E2
:10036400043083120313AA062A1DBB290130F000AE
:10037400BC29F0017008AD000030AD1BFF30AE00A9
:0E0384002D082F048800AB01AC012A100800E0
:10039200831203138601F0308316860083128801CC
:1003A200831688010130831288008B158B170B107E
:1003B2002A10AA11AA10AD01AE010230AF0000301E
:0803C200B000023088000800C1
:1003CA0083160313141394130716871538308312F0
:0403DA009400080083
:1003DE0083120313AA100E2A0A30B1000030B200A5
:1003EE000430AF000030B000262A1430B1000030C7
:1003FE00B2000830AF000030B000262A0530B10040
:10040E000030B2000230AF000030B000262A0030BB
:10041E003206031D142A053031060319F329003064
:10042E003206031D1C2A0A3031060319FC2900303E
:10043E003206031D242A143031060319052A2D080D
:0E044E002F0488003108AB003208AC00080013
:10045C0083120313E01B342A8611352A8615601B80
:10046C00392A06113A2A0615E01A3E2A86103F2A26
:10047C008614601A432A0610442A06142A1A482A9B
:10048C000616492A0612861647218612E019502AAA
:10049C008611512A86156019552A0611562A0615F9
:1004AC00E0185A2A86105B2A861460185F2A0610F8
:1004BC00602A06142A1A642A0616652A061286165B
:1004CC00472186122A1E6C2A6E216D2A4A210800A9
:0E04DC000030831203138C1A0130F000080068
:1004EA00831203131A08F100981C7D2A1812181691
:0604FA007108F00008008B
:100500008316031386120612061086100611861132
:1005100083128612061286110611861006106E21AD
:100520006E216E21861406148616472186126E21CE
:100530008616472186126E218616472186126E2165
:1005400006108616472186126E21861647218612CE
:10055000861086158616472186126E21861106148E
:1005600086164721861206108616472186126E21AE
:1005700086164721861206148616472186126E219A
:10058000061086164721861286150615861406144F
:0C0590008616472186126E212A160800EC
:10059C0083160313981690308312980083168717CE
:1005AC00071383128C1EDD2A1A08F000D72A0800C4
:1005BC0083120313E3016308600784000008003A08
:1005CC0003191A2B63082207F30023080318013EB2
:1005DC00F400FF307305E1007408F000F101FF3006
:1005EC007005E2004020AE3083120313EC00C820EB
:1005FC0083126208EC00C82083126108EC00C8204A
:10060C0083126308600784000008EC00C82069208E
:10061C001A30FC00F830FD00FD0B122BFC0B122BDA
:10062C0000008312E30AE12A6308A2070318A30A55
:02063C000800B4
:10063E007B218A110A128000840AA60A0319A70ACE
:08064E00F003031D1F2B08003F
:1006560083120313A201A301A401A501DE01DF0198
:100666003330831699001815CE220230FB00043071
:10067600FC00BA30FD00FD0B3E2BFC0B3E2BFB0BAA
:100686003E2B000080220130E0002E220C30E000DC
:100696002E22A801A901AB01AC012A110530B10037
:1006A6000030B200143083169300E521C9212A1CBC
:1006B6005D2BB221AA1D602B8221AA1C632BEF2180
:1006C6002C08003C031D692B2B08003C03187D2BCE
:1006D6000B30FB002630FC005D30FD00FD0B712B5E
:1006E600FC0B712BFB0B712B000000000130AB02E1
:1006F600031CAC032A1D052C00302C06031D852B7C
:1007060000302B06031D052C6E2270080319052CDC
:1007160075227008B5007008243A031D982BA801AD
:10072600A901A401A501DF01DE013508473A031D31
:100736009D2BDF0A5F08033A031DAB2B0030290609
:10074600031DA72B00302806031DAB2B0130DE004E
:1007560035082C3A031DB22BA80A0319A90A5E080C
:100766000319052C00302906031DBB2B0230280671
:10077600031DC22B35082C3A031DC22BFA2B8030E1
:100786002906F00080307002031DCB2B02302802B0
:10079600031CE02B80302506F00080307002031D1C
:1007A600D62B183024020318E02B2408363E84008A
:1007B60035088000A40A0319A50A80302906F0002E
:1007C60080307002031DE92B02302802031CFA2B2D
:1007D60000302506031DF12B18302406031DFA2BC5
:1007E6002408363E84008001A40A0319A50A3508A8
:1007F6002A3A031D052C3630E000DE223108AB0014
:080806003208AC005A2B062C4D
:02400E004A2F37
:00000001FF
