:02000000122AC2
:1000060083160313141911281F301105F100710806
:10001600003A031D11280130F0000800F001080025
:10002600831203138C11690893008316141D1C2870
:10003600182883128C1920281C288316111B2528A2
:0C004600F001080011150230F000080065
:080052008316031311150800C9
:10005A0083120313E901EA016A08123C031D3728D7
:10006A0069088E3C031C43280320700803193E28A4
:10007A0043288312E90A0319EA0A31288312123043
:10008A006A02031D4A288F306902031C4F287B30FD
:10009A00F000080083161114111C54285128F0018D
:0200AA0008004C
:0E00AC008312031326088A002508820008002C
:1000BA00831203138C118316911583128C196628E7
:1000CA0062281308F1006708003A031D6F28831697
:1000DA00911671288316911283128C1183161116A8
:0E00EA0083128C19792875287108F00008001F
:0600F800000000000800FA
:1000FE00831203137008F100F0010830FC00710840
:10010E00F40C03188E28FC0B8728F1010034031021
:10011E009328F40C0318F107F10CF00CFC0B90284B
:02012E000800C7
:0E013000831603139114911C9E289B2808002F
:10013E00831603139818A52800009F2883126708BA
:04014E00990008000C
:0E015200213083120313FD00FD0BAD280800C1
:1001600083120313E8016808670784000008003A57
:100170000319D9282D20A03083120313E90013207E
:10018000831268082007E9001320831268086707B4
:1001900084000008E900132029201A30FC00F83000
:1001A000FD00FD0BD128FC0BD12800008312E80ACA
:0801B000B3286808A00708004D
:1001B8000F3083120313FC004730FD00FD0BE228CB
:0A01C800FC0BE22800000000080014
:1001D20083120313CD014B0884000008CC004C08A5
:1001E200003A0319FE284C08E7009F20CD0A4D086B
:0C01F2004B0784000008CC00F028080037
:1001FE0083120313E6014B08F0001530F4007F2044
:10020E007008E607CD01CE0180304E06F00080303A
:10021E007002031D142915304D0203183F292D209D
:10022E00A03083120313E900132083124D086607D2
:10023E00E90013209820A1308312E90013208312C5
:10024E00E7015D207008E50029201A30FC00F83027
:10025E00FD00FD0B3029FC0B3029000083124D08E8
:10026E004F3E840065088000CD0A0319CE0A0B2983
:08027E00E4014F30F00008001C
:100286008316031314139413071687153830831235
:0402960094000800C8
:10029A00831203131A08F100981C5529181218160C
:0602AA007108F0000800DD
:0E02B0000030831203138C1A0130F000080096
:1002BE0083160313981690308312980083168717AF
:1002CE00071383128C1E6E291A08F0006829080085
:1002DE0056208A110A128000840AA50A0319A60A5A
:0802EE00F003031D6F29080055
:1002F600831603138612061206108610061186113F
:100306008312861206128611061186100610DC204C
:10031600DC20DC208614061486167C208612DC205F
:1003260086167C208612DC2086167C208612DC202F
:10033600061086167C208612DC2086167C20861205
:100346008610861586167C208612DC2086110614F9
:1003560086167C208612061086167C208612DC20E5
:1003660086167C208612061486167C208612DC20D1
:10037600061086167C208612861506158614061427
:0C03860086167C208612DC20481408003B
:10039200831203134B08E700B0204C08E700B0209B
:0203A200080051
:1003A40083120313CB1BD8298611D92986154B1B1D
:1003B400DD290611DE290615CB1AE2298610E32968
:1003C40086144B1AE7290610E82906144818EC2964
:1003D4000616ED29061286167C208612CB19F429FE
:1003E4008611F52986154B19F9290611FA290615DE
:1003F400CB18FE298610FF2986144B18032A0610F1
:10040400042A06144818082A0616092A061286160B
:100414007C208612481C102ADC20112AA9200800FE
:1004240083120313A001A101A201A301A401C90124
:10043400CA0133308316990018155F210230FB007E
:100444000430FC00BA30FD00FD0B262AFC0B262AE2
:10045400FB0B262A00007B210130CB00D2210C307B
:10046400CB00D221C601C701143083169300432167
:10047400582170080319052B4D217008C500700818
:10048400243A031D532AC601C7010D30E7009F20FB
:100494000A30E7009F20A301A401A101A201CA011F
:1004A400C9014508473A031D582ACA0A4A08033AAB
:1004B400031D662A00304706031D622A00304606E3
:1004C400031D662A0130C90045082C3A031D7B2A06
:1004D400C60A0319C70A00304706031D732A0430ED
:1004E4004606031D7B2A0D30E7009F200A30E700F3
:1004F4009F2049080319052B00304706031D842A51
:1005040002304606031D952A45082C3A0319952AFC
:100514004508E7009F202308363E840045088000F4
:10052400A30A0319A40A00304706031D9B2A0330BB
:100534004606031DB32A45082C3A0319B32A450875
:10054400E7009F202308363E840045088000A30A64
:100554000319A40A2308363E84008001A30A031960
:10056400A40A00304706031DB92A04304606031DB9
:10057400CA2A45082C3A0319CA2A4508E7009F20CD
:100584002108273E840045088000A10A0319A20A15
:1005940000304706031DD02A05304606031DE82A0D
:1005A40045082C3A0319E82A4508E7009F2021084A
:1005B400273E840045088000A10A0319A20A2108E5
:1005C400273E84008001A10A0319A20A45082A3A99
:1005D400031D052B3630CB002730CC00C921033056
:1005E400FB008A30FC005530FD00FD0BF72AFC0BA4
:1005F400F72AFB0BF72A00000000CB01CC01FF20F7
:0A0604007008CB00E9203A2A062B0B
:02400E004A2F37
:00000001FF
