:02000000F829DD
:10000800FF00030E8301E8000A08E9008A0170086E
:10001800A1007108A0000B1C24280608F100710833
:10002800803A031D1928C21524287108403A031D77
:100038001F28421424287108203A031D2428421539
:100048000B102108F0002008F10069088A00680EEA
:080058008300FF0E7F0E09007A
:100060008316031314193E281F301105F10071087F
:10007000003A031D3E280130F0000800F00108009E
:0800800083160313111508009B
:10008800831203138C11831624088312930083169A
:10009800141D4F284B2883128C1953284F28831678
:1000A800111B5828F001080011150230F000080053
:1000B80083160313A401A5012508123C031D662815
:1000C80024088E3C031C71283020700803196D2801
:1000D8007128A40A0319A50A602812302502031DF5
:1000E80077288F302402031C7C287B30F00008001E
:0C00F8001114111C80287D28F001080064
:100104008316031398188828000082282408831271
:040114009900080046
:0E011800213083120313FD00FD0B9028080018
:1001260083160313A3012308200784000008003A5E
:100136000319CB28230883122907F3002A0803187A
:10014600013EF400FF3073058316A1007408F00029
:10015600F101FF307005A2005C20AE30A4004420FF
:100166002208A40044202108A400442023082007D4
:1001760084000008A400442040201A30FC00F83017
:10018600FD00FD0BC428FC0BC4280000A30A96281A
:0C01960023088312A9070318AA0A080016
:0E01A2008312031344088A00430882000800F9
:0601B00000000000080041
:1001B6000F3083120313FC004730FD00FD0BE128CE
:0A01C600FC0BE12800000000080017
:1001D00083160313A201200884000008A10021084F
:1001E000003A0319FE282108A40082208316A20ADF
:0E01F0002208200784000008A100EF28080064
:1001FE00831203131A08F100981C072918121816F7
:06020E007108F000080079
:10021400831203136C088316A00093206D088316C1
:06022400A0009320080079
:10022A008316031398169030831298008316871743
:10023A00071383128C1E24291A08F0001E290800AD
:10024A002B3083160313A000E8208312C210421039
:02025A0008009A
:10025C00831603131413941307168715383083125F
:04026C0094000800F2
:10027000223083160313A000E8208312C214C21197
:02028000080074
:10028200D1208A110A128000840AC30A0319C40AFF
:08029200F003031D41290800DF
:10029A0083120313EC1B53298611542986156C1BF0
:1002AA005829061159290615EC1A5D2986105E2966
:1002BA0086146C1A6229061063290614421A6729E1
:1002CA000616682906128616D8208612EC196F2996
:1002DA008611702986156C19742906117529061557
:1002EA00EC18792986107A2986146C187E2906104A
:1002FA007F290614421A83290616842906128616AD
:10030A00D8208612421E8B29DB208C298C200800DB
:10031A00831203138601F030831686008B158B1720
:0C032A000B108312C21142104211080097
:0E0336000030831203138C1A0130F00008000F
:1003440083160313861206120610861006118611F0
:100354008312861206128611061186100610DB20FF
:10036400DB20DB20861406148616D8208612DB20B8
:100374008616D8208612DB208616D8208612DB202B
:1003840006108616D8208612DB208616D820861200
:10039400861086158616D8208612DB208611061450
:1003A4008616D820861206108616D8208612DB20E0
:1003B4008616D820861206148616D8208612DB20CC
:1003C40006108616D820861286150615861406147D
:0C03D4008616D8208612DB204216080096
:1003E000353083160313A000E82083124211080061
:1003F000533083120313A2007430A3006130A400B1
:100400007230A5007430A6000A30A700A801A90127
:10041000AA015330AB007430AC006F30AD007030C7
:10042000AE000A30AF00B001B101B201B301B401B6
:100430005330B5006530B6006E30B7006430B80098
:100440000A30B900BA015330BB007430BC006130CF
:10045000BD007230BE007430BF000A30C000C10160
:10046000EA01EB013330831699001815152102308B
:10047000FB000430FC00BA30FD00FD0B3D2AFC0BF4
:100480003D2AFB0B3D2A0000A2210130EC004D214A
:100490000C30EC004D21E601E701E401E501C2105A
:1004A0001430831693002E218D213B308316A0003B
:1004B000E8208312C21D5D2A3821421C602A2521B2
:1004C000421D632AF0216508003C031D692A640867
:1004D000003C03187D2A0B30FB002630FC005D3009
:1004E000FD00FD0B712AFC0B712AFB0B712A000029
:1004F00000000130E402031CE503C21C272B00307E
:100500006506031D852A00306406031D272B9B21E9
:1005100070080319272BFF207008C5007008243AC3
:10052000031D9A2AE601E701B301B401B101B2014A
:10053000EB01EA014508473A031D9F2AEB0A6B08C5
:10054000033A031DAD2A00306706031DA92A0030B7
:100550006606031DAD2A0130EA0045082C3A031D4A
:10056000B42AE60A0319E70A6A080319272B0030A0
:100570006706031DBD2A02306606031DCB2A450807
:100580002C3A0319CB2A3308553E840045088000D5
:10059000B30A0319B40A00306706031DD12A0330D9
:1005A0006606031DE62A45082C3A0319E62A330895
:1005B000553E840045088000B30A0319B40A330885
:1005C000553E84008001B30A0319B40A003067065F
:1005D000031DEC2A04306606031DFA2A45082C3A4E
:1005E0000319FA2A3108463E840045088000B10A02
:1005F0000319B20A00306706031D002B053066069A
:10060000031D152B45082C3A0319152B3108463EBE
:10061000840045088000B10A0319B20A3108463E39
:1006200084008001B10A0319B20A45082A3A031D61
:10063000272B5530EC004630ED000A21553083164B
:10064000A000E82005308312E4000030E500592ABC
:02065000282B55
:02400E004A2F37
:00000001FF
