:02000000622A72
:1000060083160313981809280000032883126C0826
:040016009900080045
:10001A008316031314191B281F301105F1007108E8
:10002A00003A031D1B280130F0000800F001080007
:10003A00831203138C11690893008316141D262852
:10004A00222883128C192A2826288316111B2F2866
:0C005A00F001080011150230F000080051
:1000660083120313E901EA016A08123C031D3D28C5
:1000760069088E3C031C49280D2070080319442882
:1000860049288312E90A0319EA0A3728831212302B
:100096006A02031D50288F306902031C55287B30E5
:1000A600F000080083161114111C5A285728F00175
:0200B600080040
:0800B800831603131115080063
:1000C00083120313EB01690884000008EA006A0840
:1000D000003A031975286A08EC000320EB0A6B0844
:0C00E000690784000008EA006728080097
:1000EC00023083120313FC004930FD00FD0B7C2809
:0A00FC00FC0B7C2800000000080047
:0E010600203083120313E9006020B9100800B6
:06011400000000000800DD
:10011A000F3083120313FC004730FD00FD0B9328B8
:0A012A00FC0B932800000000080001
:0E013400831203133B088A003A088200080079
:1001420083120313E6016608630784000008003A7D
:100152000319DD2866082D07F3002E080318013E57
:10016200F400FF307305E4007408F000F101FF3081
:100172007005E5003320AE3083120313E9001D2021
:1001820083126508E9001D2083126408E9001D201E
:1001920083126608630784000008E9001D205C20C2
:1001A2001A30FC00F830FD00FD0BD528FC0BD528D9
:1001B20000008312E60AA4286608AD070318AE0AF7
:0201C200080033
:1001C40083120313E8016408F1000130F0007108A0
:1001D4000319F028F00D7010FF3EEA287008E700BC
:1001E4006308840070080005F10071080130031DE4
:1001F4000030F0006608F006031918296508003C71
:100204000318082976207620E50300296308840072
:1002140067080005F10071080130031D0030F0008B
:100224006608F00603191829FF30E8006808F00092
:020234000800C0
:0E023600213083120313FD00FD0B1F29080069
:0C024400333083120313E900602008002F
:0E025000263083120313E9006020B914080061
:10025E00063083120313E3000130E4000130E500A1
:10026E000130E600E220700803193E293914391CCA
:10027E004D290630E3000130E4000130E500E601CF
:0E028E00E220700803194D2939108320080062
:10029C00063083120313E3000230E4000130E50062
:1002AC000130E600E220700803195D29B915B91D6B
:1002BC006C290630E3000230E4000130E500E60171
:0E02CC00E220700803196C29B91122210800E4
:1002DA00063083120313E300E4010130E500013024
:1002EA00E600E220700803197B293915391D89298E
:1002FA000630E300E4010130E500E601E22070087F
:0A030A000319892939112821080080
:100314000730831603138600831239113910B9117B
:020324000800CF
:100326008316031314139413071687153830831294
:040336009400080027
:0E033A000030831203138C1A0130F00008000B
:1003480083160313861206120610861006118611EC
:1003580083128612061286110611861006108D2049
:100368008D208D208614061486168A2086128D20EC
:1003780086168A2086128D2086168A2086128D205F
:10038800061086168A2086128D2086168A208612E6
:100398008610861586168A2086128D2086110614E8
:1003A80086168A208612061086168A2086128D20C6
:1003B80086168A208612061486168A2086128D20B2
:1003C800061086168A2086128615061586140614C7
:0C03D80086168A2086128D203916080037
:1003E400831203131A08F100981CFA29181218161C
:0603F4007108F000080092
:1003FA00831203135F08E300A1206008E300A12031
:02040A000800E8
:10040C0083120313DF1B0C2A86110D2A86155F1B22
:10041C00112A0611122A0615DF1A162A8610172A17
:10042C0086145F1A1B2A06101C2A0614391A202A55
:10043C000616212A061286168A208612DF19282A09
:10044C008611292A86155F192D2A06112E2A0615C2
:10045C00DF18322A8610332A86145F18372A0610C2
:10046C00382A0614391A3C2A06163D2A0612861614
:10047C008A208612391E442A8D20452A1B21080009
:10048C0083160313981690308312980083168717DF
:10049C00071383128C1E552A1A08F0004F2A0800E5
:1004AC009A208A110A128000840ABA0A0319BB0A1C
:0804BC00F003031D562A08009D
:1004C400533083120313A0007430A1006F30A200D4
:1004D4007030A3000A30A400A5015330A600743084
:1004E400A7006130A8007230A9007430AA000A3055
:1004F400AB00AC01AD01AE01AF01B001B101B2017D
:100504005330B3006530B4006E30B5006430B600CB
:100514000A30B700B801DD01DE01C9308B00333089
:1005240083169900181546220230FB000430FC00A3
:10053400BA30FD00FD0B9C2AFC0B9C2AFB0B9C2A69
:100544000000A4210130DF0006220C30DF00062267
:10055400DB01DC0114308316930093218A21B91046
:100564006D212F214E21B91C5D2B9D21700803198B
:100574005D2BF2217008DA007008243A031DCA2AA0
:10058400DB01DC01B101B201AF01B001DE01DD012B
:100594005A08473A031DCF2ADE0A5E08033A031DB0
:1005A400DD2A00305C06031DD92A00305B06031DDA
:1005B400DD2A0130DD005A082C3A031DE42ADB0A47
:1005C4000319DC0A5D0803195D2B00305C06031D6A
:1005D400ED2A02305B06031DFB2A5A082C3A031944
:1005E400FB2A31083C3E84005A088000B10A0319F2
:1005F400B20A00305C06031D012B03305B06031DA9
:10060400162B5A082C3A0319162B31083C3E840049
:100614005A088000B10A0319B20A31083C3E84002A
:100624008001B10A0319B20A00305C06031D1C2BB9
:1006340004305B06031D2A2B5A082C3A03192A2B73
:100644002F084B3E84005A088000AF0A0319B00AF1
:1006540000305C06031D302B05305B06031D452B63
:100664005A082C3A0319452B2F084B3E84005A088C
:100674008000AF0A0319B00A2F084B3E84008001A2
:10068400AF0A0319B00A5A082A3A031D5D2B3C30FD
:10069400DF004B30E000FD213C30E90060203130C8
:1006A400FB003230FC008730FD00FD0B572BFC0BA8
:0A06B400572BFB0B572BB22A5E2BCD
:02400E004A2F37
:00000001FF
