:02000000452990
:0E000600213083120313FD00FD0B07280800B4
:100014000F3083120313FC004730FD00FD0B102842
:0A002400FC0B10280000000008008B
:06002E00000000000800C4
:1000340083120313D31B2028861121288615531BF2
:100044002528061126280615D31A2A2886102B28B7
:100054008614531A2F280610302806144D183428F5
:10006400061635280612861617208612D3193C2840
:1000740086113D2886155319412806114228061574
:10008400D318462886104728861453184B28061080
:100094004C2806144D1850280616512806128616A8
:1000A400172086124D1C58280A20592803200800BE
:1000B400831203134D105208D3001A204D14080064
:1000C40083160313981868280000622883125208C4
:0400D4009900080087
:0E00D800831203132B088A002A0882000800F6
:1000E6008316031386120612061086100611861151
:1000F60083128612061286110611861006100A2031
:100106000A200A20861406148616172086120A204C
:100116008616172086120A208616172086120A20AF
:1001260006108616172086120A20861617208612B3
:10013600861086158616172086120A208611061442
:1001460086161720861206108616172086120A2093
:1001560086161720861206148616172086120A207F
:10016600061086161720861286150615861406149E
:0C0176008616172086120A204D1408007F
:0E0182000030831203138C1A0130F0000800C5
:10019000831203131A08F100981CD028181218169D
:0601A0007108F0000800E8
:1001A60083160313981690308312980083168717C8
:1001B600071383128C1EE2281A08F000DC280800B8
:1001C600F528803083120313CE000829C030CE00F4
:1001D60008299430CE000829D430CE000829803072
:1001E600CE000829831203134E08013A0319E428A6
:1001F6004E08023A0319E9284E08033A0319EC2877
:100206004E08043A0319EF28F2284F03F0004E086F
:10021600F0077008CE007008D3001A204D10D101E7
:100226005108500784000008031921295108500776
:1002360084000008D2005A20D10A13294D14080060
:1002460083120313D0014E0884000008CF004F0824
:10025600003A031938294F08D2006220D00A500804
:0C0266004E0784000008CF002A29080081
:100272006C208A110A128000840AAA0A0319AB0AA6
:08028200F003031D39290800F7
:10028A0083120313A001A101A201A3015330A40008
:10029A007430A5006130A6007230A7007430A8003F
:1002AA00A9013330831699001815D3200230FB00B8
:1002BA000430FC00BA30FD00FD0B6129FC0B6129FA
:1002CA00FB0B612900002430CE0023210D30D2001F
:1002DA0062200A30D200622073200130D3001A2033
:1002EA000C30D3001A20CB01CC01C12070080319AD
:1002FA00222AC8207008CA007008243A031D9129CE
:10030A00CB01CC010D30D20062200A30D20062202B
:10031A00A201A301A001A1014A082C3A031DA629A2
:10032A00CB0A0319CC0A00304C06031D9E2904305F
:10033A004B06031DA6290D30D20062200A30D200D6
:10034A00622000304C06031DAC2902304B06031D07
:10035A00BD294A082C3A0319BD294A08D20062204D
:10036A0022083B3E84004A088000A20A0319A30A15
:10037A0000304C06031DC32903304B06031DDB293D
:10038A004A082C3A0319DB294A08D20062202208BB
:10039A003B3E84004A088000A20A0319A30A2208E5
:1003AA003B3E84008001A20A0319A30A00304C06CE
:1003BA00031DE12904304B06031DF2294A082C3A91
:1003CA000319F2294A08D200622020082C3E840030
:1003DA004A088000A00A0319A10A00304C06031D2E
:1003EA00F82905304B06031D102A4A082C3A03192E
:1003FA00102A4A08D200622020082C3E84004A08AB
:10040A008000A00A0319A10A20082C3E840080015A
:10041A00A00A0319A10A4A082A3A031D222A02300D
:10042A00CE000130CF002C30D000E3200130CE00C6
:0E043A000130CF003B30D000E3207A29232A86
:02400E004A2F37
:00000001FF
